S01C000050495253656E736F72496E746572666163696E672E7372656339
S11300000C9472000C9493000C9493000C94930041
S11300100C9493000C9493000C9493000C94930010
S11300200C9493000C9493000C9493000C94930000
S11300300C9493000C9493000C9493000C949300F0
S11300400C9493000C9493000C9493000C949300E0
S11300500C9493000C9493000C9493000C949300D0
S11300600C9493000C9493000C9493000C949300C0
S11300700C9493000C9493000C9493000C949300B0
S11300800C9493000C9493000C9493000C949300A0
S11300900C9493000C9493000C9493000C94930090
S11300A00C9493000C9493000C9493000C94930080
S11300B00C9493000C9493000C9493000C94930070
S11300C00C9493000C9493000C9493000C94930060
S11300D00C9493000C9493000C9493000C94930050
S11300E00C94930011241FBECFEFD1E2DEBFCDBF2D
S11300F000E00CBF12E0A0E0B2E0E8E4F3E000E0CE
S11301000BBF02C007900D92A833B107D9F722E0C4
S1130110A8E3B2E001C01D92A833B207E1F70E9440
S113012065010C94A2010C94000087B1876F87B914
S113013088B1887088B9089586E69EE00197F1F742
S113014000004098419880E388B9429AEFEFF7E4C1
S11301503197F1F700C000004298E6E6FEE03197DF
S1130160F1F700004098419888B9429AEFEFF7E41C
S11301703197F1F700C000004298E6E6FEE03197BF
S1130180F1F700004098419888B9429A8FEF97E4BC
S11301900197F1F700C000004298E6E6FEE03197CF
S11301A0F1F700004098419880E288B9429A8FEFB5
S11301B097E40197F1F700C000004298089598B1C0
S11301C09F7098B998B1282F207F922B98B94098A6
S11301D04198429AEFEFF7E43197F1F700C000003D
S11301E0429898B19F7098B998B18295807F892B75
S11301F088B940984198429A8FEF97E40197F1F7B4
S113020000C00000429808950E9495000E949C003E
S113021086E69EE00197F1F7000088E20E94DF0085
S113022081E00E94DF0086E00E94DF008EE00E94F1
S1130230DF0080E80C94DF0098B19F7098B998B102
S1130240282F207F922B98B9409A4198429AEFEF39
S1130250F7E43197F1F700C00000429898B19F701D
S113026098B998B18295807F892B88B9409A419832
S1130270429A8FEF97E40197F1F700C0000042988B
S11302800895CF93DF93EC018991882319F00E949C
S11302901C01FACFDF91CF91089581E00C94DF0027
S11302A0EAE0F1E08081808308959091090181E082
S11302B0903809F080E008950E9450010C940401E4
S11302C0F8940E945C01789408950E94600182E889
S11302D00E94DF0080E092E00E94410183EC0E94D2
S11302E0DF008EE092E00E9441012FEF8FEF99E54D
S11302F0215080409040E1F700C000000E944D0171
S113030084EC0E94DF0089E192E00E9441010E9496
S11303105501882331F083E80E94DF0083E292E0F4
S113032005C083E80E94DF008DE292E00E94410153
S11303302FEF8FE794E0215080409040E1F700C018
S10B03400000E5CFF894FFCFA3
S1130348484143544F4245522D324B3139004F50A6
S1130358454E534F5552434500444554454354452F
S113036844210020204D4F54494F4E20004E4F2029
S10B03784D4F54494F4E0000A3
S9030000FC
