:100000000C9472000C9493000C9493000C94930045
:100010000C9493000C9493000C9493000C94930014
:100020000C9493000C9493000C9493000C94930004
:100030000C9493000C9493000C9493000C949300F4
:100040000C9493000C9493000C9493000C949300E4
:100050000C9493000C9493000C9493000C949300D4
:100060000C9493000C9493000C9493000C949300C4
:100070000C9493000C9493000C9493000C949300B4
:100080000C9493000C9493000C9493000C949300A4
:100090000C9493000C9493000C9493000C94930094
:1000A0000C9493000C9493000C9493000C94930084
:1000B0000C9493000C9493000C9493000C94930074
:1000C0000C9493000C9493000C9493000C94930064
:1000D0000C9493000C9493000C9493000C94930054
:1000E0000C94930011241FBECFEFD1E2DEBFCDBF31
:1000F00000E00CBF12E0A0E0B2E0E4EAF3E000E0D0
:100100000BBF02C007900D92A833B107D9F722E0C8
:10011000A8E3B2E001C01D92A833B207E1F70E9444
:100120008C010C94D0010C94000087B1876F87B9C3
:1001300088B1887088B9089586E69EE00197F1F746
:1001400000004098419880E388B9429AEFEFF7E4C5
:100150003197F1F700C000004298E6E6FEE03197E3
:10016000F1F700004098419888B9429AEFEFF7E420
:100170003197F1F700C000004298E6E6FEE03197C3
:10018000F1F700004098419888B9429A8FEF97E4C0
:100190000197F1F700C000004298E6E6FEE03197D3
:1001A000F1F700004098419880E288B9429A8FEFB9
:1001B00097E40197F1F700C000004298089598B1C4
:1001C0009F7098B998B1282F207F922B98B94098AA
:1001D0004198429AEFEFF7E43197F1F700C0000041
:1001E000429898B19F7098B998B18295807F892B79
:1001F00088B940984198429A8FEF97E40197F1F7B8
:1002000000C00000429808950E9495000E949C0042
:1002100086E69EE00197F1F7000088E20E94DF0089
:1002200081E00E94DF0086E00E94DF008EE00E94F5
:10023000DF0080E80E94DF00089598B19F7098B9B0
:1002400098B1282F207F922B98B9409A4198429AD2
:10025000EFEFF7E43197F1F700C00000429898B152
:100260009F7098B998B18295807F892B88B9409A00
:100270004198429A8FEF97E40197F1F700C0000090
:1002800042980895823071F018F4813031F0089569
:10029000833069F0843081F008958FE7860F0E94E3
:1002A000DF0008958FEB860F0E94DF00089583E939
:1002B000860F0E94DF00089583ED860F0E94DF0005
:1002C0000895CF93DF93EC018881882331F0219644
:1002D0000E941D0189918111FBCFDF91CF9108957B
:1002E00081E00E94DF000895EAE0F1E080818083F0
:1002F00008952091090181E090E0203811F480E018
:1003000090E008950E9474010E9404010895F894F9
:100310000E948201789408950E94870163E081E041
:100320000E94420180E092E00E94610164E082E06C
:100330000E9442018EE092E00E9461012FEF8FEF58
:1003400099E5215080409040E1F700C000000E94F4
:10035000700165E082E00E94420189E192E00E9422
:1003600061010E947901892B49F064E081E00E94DB
:10037000420183E292E00E94610108C064E081E0F2
:100380000E9442018DE292E00E9461012FEF8FE70F
:1003900096E1215080409040E1F700C00000E1CF9D
:0403A000F894FFCFFF
:1003A400484143544F4245522D324B3139004F504E
:1003B400454E534F555243450044455445435445D7
:1003C40044210020204D4F54494F4E20004E4F20D1
:0803D4004D4F54494F4E00004B
:00000001FF
